{
  "_format": "hh-sol-artifact-1",
  "contractName": "Banana",
  "sourceName": "contracts/banana.sol",
  "abi": [
    {
      "inputs": [
        {
          "internalType": "string",
          "name": "_id",
          "type": "string"
        },
        {
          "internalType": "int256",
          "name": "_price",
          "type": "int256"
        },
        {
          "internalType": "int256",
          "name": "_quantity",
          "type": "int256"
        }
      ],
      "stateMutability": "nonpayable",
      "type": "constructor"
    },
    {
      "inputs": [],
      "name": "getId",
      "outputs": [
        {
          "internalType": "string",
          "name": "",
          "type": "string"
        }
      ],
      "stateMutability": "view",
      "type": "function"
    },
    {
      "inputs": [],
      "name": "getPrice",
      "outputs": [
        {
          "internalType": "int256",
          "name": "",
          "type": "int256"
        }
      ],
      "stateMutability": "view",
      "type": "function"
    },
    {
      "inputs": [],
      "name": "getQuantity",
      "outputs": [
        {
          "internalType": "int256",
          "name": "",
          "type": "int256"
        }
      ],
      "stateMutability": "view",
      "type": "function"
    },
    {
      "inputs": [
        {
          "internalType": "int256",
          "name": "_price",
          "type": "int256"
        }
      ],
      "name": "setPrice",
      "outputs": [],
      "stateMutability": "nonpayable",
      "type": "function"
    },
    {
      "inputs": [
        {
          "internalType": "int256",
          "name": "_quantity",
          "type": "int256"
        }
      ],
      "name": "setQuantity",
      "outputs": [],
      "stateMutability": "nonpayable",
      "type": "function"
    }
  ],
  "bytecode": "0x608060405234801561001057600080fd5b50604051610721380380610721833981810160405281019061003291906102b6565b826000908051906020019061004892919061005f565b508160018190555080600281905550505050610386565b82805461006b90610354565b90600052602060002090601f01602090048101928261008d57600085556100d4565b82601f106100a657805160ff19168380011785556100d4565b828001600101855582156100d4579182015b828111156100d35782518255916020019190600101906100b8565b5b5090506100e191906100e5565b5090565b5b808211156100fe5760008160009055506001016100e6565b5090565b6000604051905090565b600080fd5b600080fd5b600080fd5b600080fd5b6000601f19601f8301169050919050565b7f4e487b7100000000000000000000000000000000000000000000000000000000600052604160045260246000fd5b61016982610120565b810181811067ffffffffffffffff8211171561018857610187610131565b5b80604052505050565b600061019b610102565b90506101a78282610160565b919050565b600067ffffffffffffffff8211156101c7576101c6610131565b5b6101d082610120565b9050602081019050919050565b60005b838110156101fb5780820151818401526020810190506101e0565b8381111561020a576000848401525b50505050565b600061022361021e846101ac565b610191565b90508281526020810184848401111561023f5761023e61011b565b5b61024a8482856101dd565b509392505050565b600082601f83011261026757610266610116565b5b8151610277848260208601610210565b91505092915050565b6000819050919050565b61029381610280565b811461029e57600080fd5b50565b6000815190506102b08161028a565b92915050565b6000806000606084860312156102cf576102ce61010c565b5b600084015167ffffffffffffffff8111156102ed576102ec610111565b5b6102f986828701610252565b935050602061030a868287016102a1565b925050604061031b868287016102a1565b9150509250925092565b7f4e487b7100000000000000000000000000000000000000000000000000000000600052602260045260246000fd5b6000600282049050600182168061036c57607f821691505b602082108114156103805761037f610325565b5b50919050565b61038c806103956000396000f3fe608060405234801561001057600080fd5b50600436106100575760003560e01c80630115949c1461005c5780635d1ca6311461007a57806366efec561461009857806398d5fdca146100b4578063f7a30806146100d2575b600080fd5b6100646100ee565b60405161007191906101c1565b60405180910390f35b6100826100f8565b60405161008f9190610275565b60405180910390f35b6100b260048036038101906100ad91906102c8565b61018a565b005b6100bc610194565b6040516100c991906101c1565b60405180910390f35b6100ec60048036038101906100e791906102c8565b61019e565b005b6000600254905090565b60606000805461010790610324565b80601f016020809104026020016040519081016040528092919081815260200182805461013390610324565b80156101805780601f1061015557610100808354040283529160200191610180565b820191906000526020600020905b81548152906001019060200180831161016357829003601f168201915b5050505050905090565b8060028190555050565b6000600154905090565b8060018190555050565b6000819050919050565b6101bb816101a8565b82525050565b60006020820190506101d660008301846101b2565b92915050565b600081519050919050565b600082825260208201905092915050565b60005b838110156102165780820151818401526020810190506101fb565b83811115610225576000848401525b50505050565b6000601f19601f8301169050919050565b6000610247826101dc565b61025181856101e7565b93506102618185602086016101f8565b61026a8161022b565b840191505092915050565b6000602082019050818103600083015261028f818461023c565b905092915050565b600080fd5b6102a5816101a8565b81146102b057600080fd5b50565b6000813590506102c28161029c565b92915050565b6000602082840312156102de576102dd610297565b5b60006102ec848285016102b3565b91505092915050565b7f4e487b7100000000000000000000000000000000000000000000000000000000600052602260045260246000fd5b6000600282049050600182168061033c57607f821691505b602082108114156103505761034f6102f5565b5b5091905056fea264697066735822122067194b973f8a7ba3029e71c766a2706a9814a57c7f91b779bd0ddcfada145b0064736f6c63430008090033",
  "linkReferences": {},
  "deployedLinkReferences": {}
}